{
  "_format": "hh-sol-artifact-1",
  "contractName": "Monitoring",
  "sourceName": "contracts/Monitoring.sol",
  "abi": [
    {
      "inputs": [],
      "stateMutability": "nonpayable",
      "type": "constructor"
    },
    {
      "anonymous": false,
      "inputs": [
        {
          "indexed": true,
          "internalType": "uint256",
          "name": "readingId",
          "type": "uint256"
        },
        {
          "indexed": false,
          "internalType": "uint256",
          "name": "timestamp",
          "type": "uint256"
        },
        {
          "indexed": false,
          "internalType": "string",
          "name": "location",
          "type": "string"
        }
      ],
      "name": "NewReading",
      "type": "event"
    },
    {
      "inputs": [
        {
          "internalType": "string",
          "name": "_location",
          "type": "string"
        },
        {
          "internalType": "int256",
          "name": "_temperature",
          "type": "int256"
        },
        {
          "internalType": "uint256",
          "name": "_humidity",
          "type": "uint256"
        }
      ],
      "name": "addReading",
      "outputs": [],
      "stateMutability": "nonpayable",
      "type": "function"
    },
    {
      "inputs": [],
      "name": "getReadingsCount",
      "outputs": [
        {
          "internalType": "uint256",
          "name": "",
          "type": "uint256"
        }
      ],
      "stateMutability": "view",
      "type": "function"
    },
    {
      "inputs": [],
      "name": "owner",
      "outputs": [
        {
          "internalType": "address",
          "name": "",
          "type": "address"
        }
      ],
      "stateMutability": "view",
      "type": "function"
    },
    {
      "inputs": [
        {
          "internalType": "uint256",
          "name": "",
          "type": "uint256"
        }
      ],
      "name": "readings",
      "outputs": [
        {
          "internalType": "uint256",
          "name": "timestamp",
          "type": "uint256"
        },
        {
          "internalType": "string",
          "name": "location",
          "type": "string"
        },
        {
          "internalType": "int256",
          "name": "temperature",
          "type": "int256"
        },
        {
          "internalType": "uint256",
          "name": "humidity",
          "type": "uint256"
        }
      ],
      "stateMutability": "view",
      "type": "function"
    }
  ],
  "bytecode": "0x60a0604052348015600f57600080fd5b503373ffffffffffffffffffffffffffffffffffffffff1660808173ffffffffffffffffffffffffffffffffffffffff1681525050608051610b2f6100656000396000818160ea015261010e0152610b2f6000f3fe608060405234801561001057600080fd5b506004361061004c5760003560e01c8063546457b3146100515780638da5cb5b1461006f578063d3abc4501461008d578063d5da886d146100a9575b600080fd5b6100596100dc565b604051610066919061034d565b60405180910390f35b6100776100e8565b60405161008491906103a9565b60405180910390f35b6100a760048036038101906100a29190610580565b61010c565b005b6100c360048036038101906100be91906105ef565b61026c565b6040516100d394939291906106aa565b60405180910390f35b60008080549050905090565b7f000000000000000000000000000000000000000000000000000000000000000081565b7f000000000000000000000000000000000000000000000000000000000000000073ffffffffffffffffffffffffffffffffffffffff163373ffffffffffffffffffffffffffffffffffffffff161461019a576040517f08c379a000000000000000000000000000000000000000000000000000000000815260040161019190610768565b60405180910390fd5b600060405180608001604052804281526020018581526020018481526020018381525090806001815401808255809150506001900390600052602060002090600402016000909190919091506000820151816000015560208201518160010190816102059190610994565b5060408201518160020155606082015181600301555050600160008054905061022e9190610a95565b7f5ef1c911426068061f8e51b7fb739108a85cdf412b192d6c7e1df74a1fc8629a428560405161025f929190610ac9565b60405180910390a2505050565b6000818154811061027c57600080fd5b90600052602060002090600402016000915090508060000154908060010180546102a5906107b7565b80601f01602080910402602001604051908101604052809291908181526020018280546102d1906107b7565b801561031e5780601f106102f35761010080835404028352916020019161031e565b820191906000526020600020905b81548152906001019060200180831161030157829003601f168201915b5050505050908060020154908060030154905084565b6000819050919050565b61034781610334565b82525050565b6000602082019050610362600083018461033e565b92915050565b600073ffffffffffffffffffffffffffffffffffffffff82169050919050565b600061039382610368565b9050919050565b6103a381610388565b82525050565b60006020820190506103be600083018461039a565b92915050565b6000604051905090565b600080fd5b600080fd5b600080fd5b600080fd5b6000601f19601f8301169050919050565b7f4e487b7100000000000000000000000000000000000000000000000000000000600052604160045260246000fd5b61042b826103e2565b810181811067ffffffffffffffff8211171561044a576104496103f3565b5b80604052505050565b600061045d6103c4565b90506104698282610422565b919050565b600067ffffffffffffffff821115610489576104886103f3565b5b610492826103e2565b9050602081019050919050565b82818337600083830152505050565b60006104c16104bc8461046e565b610453565b9050828152602081018484840111156104dd576104dc6103dd565b5b6104e884828561049f565b509392505050565b600082601f830112610505576105046103d8565b5b81356105158482602086016104ae565b91505092915050565b6000819050919050565b6105318161051e565b811461053c57600080fd5b50565b60008135905061054e81610528565b92915050565b61055d81610334565b811461056857600080fd5b50565b60008135905061057a81610554565b92915050565b600080600060608486031215610599576105986103ce565b5b600084013567ffffffffffffffff8111156105b7576105b66103d3565b5b6105c3868287016104f0565b93505060206105d48682870161053f565b92505060406105e58682870161056b565b9150509250925092565b600060208284031215610605576106046103ce565b5b60006106138482850161056b565b91505092915050565b600081519050919050565b600082825260208201905092915050565b60005b8381101561065657808201518184015260208101905061063b565b60008484015250505050565b600061066d8261061c565b6106778185610627565b9350610687818560208601610638565b610690816103e2565b840191505092915050565b6106a48161051e565b82525050565b60006080820190506106bf600083018761033e565b81810360208301526106d18186610662565b90506106e0604083018561069b565b6106ed606083018461033e565b95945050505050565b7f4572726f723a20416e64612062756b616e2070656d696c696b20286f776e657260008201527f2920636f6e747261637420696e692e0000000000000000000000000000000000602082015250565b6000610752602f83610627565b915061075d826106f6565b604082019050919050565b6000602082019050818103600083015261078181610745565b9050919050565b7f4e487b7100000000000000000000000000000000000000000000000000000000600052602260045260246000fd5b600060028204905060018216806107cf57607f821691505b6020821081036107e2576107e1610788565b5b50919050565b60008190508160005260206000209050919050565b60006020601f8301049050919050565b600082821b905092915050565b60006008830261084a7fffffffffffffffffffffffffffffffffffffffffffffffffffffffffffffffff8261080d565b610854868361080d565b95508019841693508086168417925050509392505050565b6000819050919050565b600061089161088c61088784610334565b61086c565b610334565b9050919050565b6000819050919050565b6108ab83610876565b6108bf6108b782610898565b84845461081a565b825550505050565b600090565b6108d46108c7565b6108df8184846108a2565b505050565b5b81811015610903576108f86000826108cc565b6001810190506108e5565b5050565b601f82111561094857610919816107e8565b610922846107fd565b81016020851015610931578190505b61094561093d856107fd565b8301826108e4565b50505b505050565b600082821c905092915050565b600061096b6000198460080261094d565b1980831691505092915050565b6000610984838361095a565b9150826002028217905092915050565b61099d8261061c565b67ffffffffffffffff8111156109b6576109b56103f3565b5b6109c082546107b7565b6109cb828285610907565b600060209050601f8311600181146109fe57600084156109ec578287015190505b6109f68582610978565b865550610a5e565b601f198416610a0c866107e8565b60005b82811015610a3457848901518255600182019150602085019450602081019050610a0f565b86831015610a515784890151610a4d601f89168261095a565b8355505b6001600288020188555050505b505050505050565b7f4e487b7100000000000000000000000000000000000000000000000000000000600052601160045260246000fd5b6000610aa082610334565b9150610aab83610334565b9250828203905081811115610ac357610ac2610a66565b5b92915050565b6000604082019050610ade600083018561033e565b8181036020830152610af08184610662565b9050939250505056fea26469706673582212205e9938e95ecbbe0bc149068db8e6e86755e8b59a2921c2fdae161d567af86e1d64736f6c634300081c0033",
  "linkReferences": {},
  "deployedLinkReferences": {}
}